{
  "contractName": "Adoption",
  "abi": [
    {
      "constant": true,
      "inputs": [
        {
          "name": "",
          "type": "uint256"
        }
      ],
      "name": "adopters",
      "outputs": [
        {
          "name": "",
          "type": "address"
        }
      ],
      "payable": false,
      "stateMutability": "view",
      "type": "function"
    }
  ],
  "bytecode": "0x6060604052341561000f57600080fd5b6101048061001e6000396000f300606060405260043610603f576000357c0100000000000000000000000000000000000000000000000000000000900463ffffffff16806343ae80d3146044575b600080fd5b3415604e57600080fd5b6062600480803590602001909190505060a4565b604051808273ffffffffffffffffffffffffffffffffffffffff1673ffffffffffffffffffffffffffffffffffffffff16815260200191505060405180910390f35b60008160108110151560b257fe5b016000915054906101000a900473ffffffffffffffffffffffffffffffffffffffff16815600a165627a7a7230582036f6831850985aa39341d028eb9280fd2b25755bb64963aa1d531632c00962c60029",
  "source": "pragma solidity ^0.4.17;\n\ncontract Adoption {\n// Variable setup unique type, ethereum addresses stored as 20 byte values\naddress[16] public adopters;\n}\n",
  "sourcePath": "/Users/phil/dev/pet-shop/contracts/Adoption.sol",
  "compiler": {
    "name": "solc",
    "version": "0.4.18+commit.9cf6e910.Emscripten.clang"
  },
  "schemaVersion": "1.0.1",
  "updatedAt": "2018-01-05T08:08:18.657Z"
}